:040000000128FE2FA6
:100CBC008631BE2686318631BE2686318631BE26E9
:100CCC0086318631922686310800F50186315E2602
:100CDC0086310330F4000830F3007730890B742E22
:100CEC00F30B742EF40B742E00000130F300730818
:100CFC00F50703307502031C842E852E6C2E0830EC
:100D0C00F4001B30F3002730890B8A2EF30B8A2E4C
:100D1C00F40B8A2E00000800F20120009C178C16A0
:100D2C000C12ED3000320032890B982E000020009E
:100D3C009C138C120C16ED3000320032890BA22E53
:100D4C0000000130F0007008F207B4307202031C8E
:100D5C00B02EB12E932E0230F1000430F000BA30D8
:100D6C00890BB62EF00BB62EF10BB62E0032080006
:100D7C00F20120009C178C160C12ED300032003260
:100D8C00890BC42E000020009C138C120C16ED3025
:100D9C0000320032890BCE2E00000130F0007008BA
:100DAC00F2073C307202031CDC2EDD2EBF2E02300B
:100DBC00F1000430F000BA30890BE22EF00BE22E79
:100DCC00F10BE22E0032080022008C010B302100C6
:100DDC008C0023008C010B3024008C002100951317
:100DEC0025008C01373026008C003F3027008C000A
:100DFC0022009D017030210099009801220096017B
:100E0C00CF3025009300920103309100FC309E05F9
:100E1C0020009E019D019F0101309B0001309A0032
:100E2C0091109C010800F8018631EA268731F901FE
:100E3C0020008C18222F232F262FF801F80A3C2F84
:100E4C000330F7000830F6007730890B2B2FF60BA8
:100E5C002B2FF70B2B2F00000130F6007608F9072B
:100E6C0005307902031C3B2F3C2F1E2F20009C17B2
:100E7C008C19412F422F612F3D302100980020000A
:100E8C008C160630F7001330F600AE30890B4C2F61
:100E9C00F60B4C2FF70B4C2F20008C120330F70065
:100EAC000830F6007730890B592FF60B592FF70BBA
:100EBC00592F0000CA2F0C18642F652F742F043083
:100ECC00F7000C30F6003430890B6A2FF60B6A2FC2
:100EDC00F70B6A2F033021009800452F2100980151
:100EEC00CA2F20009C170230F7000430F600BA30ED
:100EFC00890B7E2FF60B7E2FF70B7E2F003286315F
:100F0C006B268731A62F8C198C2F8D2F912F3D306E
:100F1C00210098009B2F0C18942F952F992F03309C
:100F2C00210098009B2F210098010630F700133008
:100F3C00F600AE30890BA02FF60BA02FF70BA02FCD
:100F4C0020008C1CAA2FAB2F892F9C13FA01023086
:100F5C00F7000430F600BA30890BB22FF60BB22F23
:100F6C00F70BB22F003220008C18BD2FBE2FC02FD4
:100F7C00F801CA2F0130F6007608FA070A307A0217
:100F8C00031CC92FCA2FAD2F78030319CE2FCF2FD7
:100F9C00772F20009C170230F7000430F600BA308F
:100FAC00890BD62FF60BD62FF70BD62F003220003D
:100FBC008C18E12FE22FF62F9C178C160C12ED30AB
:100FCC0000320032890BE62F000020009C138C129B
:100FDC000C16ED3000320032890BF02F0000DD2FA3
:100FEC00ED3000320032890BF72F0000DD2F012885
:040FFC002000192F89
:020000040001F9
:08000000FF3FFF3FFF3FFF3F00
:06000E00BC3FFF3E9F3FD6
:00000001FF
