:02000000FE2BD5
:1006A6008312C001C1016E23C32378088312C100DF
:1006B6007708C00083120518672B85140130F000F7
:1006C6000030F1008F23831285100130F0000030D6
:1006D600F1008F235D2B83169F0101308500811366
:1006E600093095008B011310FC3083129205951387
:1006F6001508F0390C3895000130831692008312E4
:10070600910112159301CF30F00070089505303035
:10071600F000700895040800F301F4017408803AAB
:10072600F2007108803A7202031D9B2B7008730257
:1007360003180800F501F6017608803AFF008030BC
:100746007F02031DA82B323075020318BC2B000054
:100756000130F5070318F60A0030F6077608803AE6
:10076600FF0080307F02031DBA2B32307502031C56
:10077600AA2B0130F3070318F40A0030F407912B73
:10078600F901FA01FB01FC017C08803AFF00803088
:100796007F02031DD02B04307B020318F92B831232
:1007A60085146430F0000030F1008F2383120518A1
:1007B600E22B0130F9070318FA0A0030FA07851010
:1007C6006430F0000030F1008F230130FB0703187E
:1007D600FC0A0030FC077C08803AFF0080307F026C
:1007E600031DF72B04307B02031CD22B7A08F8007A
:0A07F6007908F70008008301532B77
:02400E0052FC62
:00000001FF
